{
  "contractName": "ERC721Holder",
  "abi": [
    {
      "inputs": [
        {
          "internalType": "address",
          "name": "",
          "type": "address"
        },
        {
          "internalType": "address",
          "name": "",
          "type": "address"
        },
        {
          "internalType": "uint256",
          "name": "",
          "type": "uint256"
        },
        {
          "internalType": "bytes",
          "name": "",
          "type": "bytes"
        }
      ],
      "name": "onERC721Received",
      "outputs": [
        {
          "internalType": "bytes4",
          "name": "",
          "type": "bytes4"
        }
      ],
      "stateMutability": "nonpayable",
      "type": "function"
    }
  ],
  "bytecode": "0x6080604052348015600e575f5ffd5b506103538061001c5f395ff3fe608060405234801561000f575f5ffd5b5060043610610029575f3560e01c8063150b7a021461002d575b5f5ffd5b6100476004803603810190610042919061024a565b61005d565b6040516100549190610304565b60405180910390f35b5f63150b7a0260e01b9050949350505050565b5f604051905090565b5f5ffd5b5f5ffd5b5f73ffffffffffffffffffffffffffffffffffffffff82169050919050565b5f6100aa82610081565b9050919050565b6100ba816100a0565b81146100c4575f5ffd5b50565b5f813590506100d5816100b1565b92915050565b5f819050919050565b6100ed816100db565b81146100f7575f5ffd5b50565b5f81359050610108816100e4565b92915050565b5f5ffd5b5f5ffd5b5f601f19601f8301169050919050565b7f4e487b71000000000000000000000000000000000000000000000000000000005f52604160045260245ffd5b61015c82610116565b810181811067ffffffffffffffff8211171561017b5761017a610126565b5b80604052505050565b5f61018d610070565b90506101998282610153565b919050565b5f67ffffffffffffffff8211156101b8576101b7610126565b5b6101c182610116565b9050602081019050919050565b828183375f83830152505050565b5f6101ee6101e98461019e565b610184565b90508281526020810184848401111561020a57610209610112565b5b6102158482856101ce565b509392505050565b5f82601f8301126102315761023061010e565b5b81356102418482602086016101dc565b91505092915050565b5f5f5f5f6080858703121561026257610261610079565b5b5f61026f878288016100c7565b9450506020610280878288016100c7565b9350506040610291878288016100fa565b925050606085013567ffffffffffffffff8111156102b2576102b161007d565b5b6102be8782880161021d565b91505092959194509250565b5f7fffffffff0000000000000000000000000000000000000000000000000000000082169050919050565b6102fe816102ca565b82525050565b5f6020820190506103175f8301846102f5565b9291505056fea264697066735822122065de62c0d334443b742fe2631861e9ebb038ce8e377691e702118214eb9218d664736f6c634300081e0033",
  "immutableReferences": {},
  "source": "// SPDX-License-Identifier: MIT\n// OpenZeppelin Contracts (last updated v4.9.0) (token/ERC721/utils/ERC721Holder.sol)\n\npragma solidity ^0.8.0;\n\nimport \"../IERC721Receiver.sol\";\n\n/**\n * @dev Implementation of the {IERC721Receiver} interface.\n *\n * Accepts all token transfers.\n * Make sure the contract is able to use its token with {IERC721-safeTransferFrom}, {IERC721-approve} or {IERC721-setApprovalForAll}.\n */\ncontract ERC721Holder is IERC721Receiver {\n    /**\n     * @dev See {IERC721Receiver-onERC721Received}.\n     *\n     * Always returns `IERC721Receiver.onERC721Received.selector`.\n     */\n    function onERC721Received(address, address, uint256, bytes memory) public virtual override returns (bytes4) {\n        return this.onERC721Received.selector;\n    }\n}\n",
  "sourcePath": "@openzeppelin\\contracts\\token\\ERC721\\utils\\ERC721Holder.sol",
  "compiler": {
    "name": "solc",
    "version": "0.8.30+commit.73712a01.Emscripten.clang"
  },
  "schemaVersion": "3.4.16",
  "updatedAt": "2025-08-02T15:23:55.282Z",
  "devdoc": {
    "details": "Implementation of the {IERC721Receiver} interface. Accepts all token transfers. Make sure the contract is able to use its token with {IERC721-safeTransferFrom}, {IERC721-approve} or {IERC721-setApprovalForAll}.",
    "kind": "dev",
    "methods": {
      "onERC721Received(address,address,uint256,bytes)": {
        "details": "See {IERC721Receiver-onERC721Received}. Always returns `IERC721Receiver.onERC721Received.selector`."
      }
    },
    "version": 1
  },
  "userdoc": {
    "kind": "user",
    "methods": {},
    "version": 1
  }
}