{
  "contractName": "Marketplace",
  "abi": [
    {
      "anonymous": false,
      "inputs": [
        {
          "indexed": true,
          "internalType": "uint256",
          "name": "itemId",
          "type": "uint256"
        },
        {
          "indexed": true,
          "internalType": "address",
          "name": "nftContract",
          "type": "address"
        },
        {
          "indexed": true,
          "internalType": "uint256",
          "name": "tokenId",
          "type": "uint256"
        },
        {
          "indexed": false,
          "internalType": "address",
          "name": "seller",
          "type": "address"
        },
        {
          "indexed": false,
          "internalType": "uint256",
          "name": "price",
          "type": "uint256"
        },
        {
          "indexed": false,
          "internalType": "bool",
          "name": "sold",
          "type": "bool"
        }
      ],
      "name": "MarketItemCreated",
      "type": "event"
    },
    {
      "inputs": [
        {
          "internalType": "address",
          "name": "",
          "type": "address"
        },
        {
          "internalType": "address",
          "name": "",
          "type": "address"
        },
        {
          "internalType": "uint256",
          "name": "",
          "type": "uint256"
        },
        {
          "internalType": "bytes",
          "name": "",
          "type": "bytes"
        }
      ],
      "name": "onERC721Received",
      "outputs": [
        {
          "internalType": "bytes4",
          "name": "",
          "type": "bytes4"
        }
      ],
      "stateMutability": "nonpayable",
      "type": "function"
    },
    {
      "inputs": [
        {
          "internalType": "address",
          "name": "nftContract",
          "type": "address"
        },
        {
          "internalType": "uint256",
          "name": "tokenId",
          "type": "uint256"
        },
        {
          "internalType": "uint256",
          "name": "price",
          "type": "uint256"
        }
      ],
      "name": "createMarketItem",
      "outputs": [],
      "stateMutability": "payable",
      "type": "function"
    },
    {
      "inputs": [
        {
          "internalType": "address",
          "name": "nftContract",
          "type": "address"
        },
        {
          "internalType": "uint256",
          "name": "itemId",
          "type": "uint256"
        }
      ],
      "name": "buyMarketItem",
      "outputs": [],
      "stateMutability": "payable",
      "type": "function"
    },
    {
      "inputs": [],
      "name": "fetchMarketItems",
      "outputs": [
        {
          "components": [
            {
              "internalType": "uint256",
              "name": "itemId",
              "type": "uint256"
            },
            {
              "internalType": "address",
              "name": "nftContract",
              "type": "address"
            },
            {
              "internalType": "uint256",
              "name": "tokenId",
              "type": "uint256"
            },
            {
              "internalType": "address payable",
              "name": "seller",
              "type": "address"
            },
            {
              "internalType": "uint256",
              "name": "price",
              "type": "uint256"
            },
            {
              "internalType": "bool",
              "name": "sold",
              "type": "bool"
            }
          ],
          "internalType": "struct Marketplace.MarketItem[]",
          "name": "",
          "type": "tuple[]"
        }
      ],
      "stateMutability": "view",
      "type": "function"
    }
  ],
  "bytecode": "0x6080604052348015600e575f5ffd5b5060015f8190555061100f806100235f395ff3fe60806040526004361061003e575f3560e01c80630f08efe014610042578063150b7a021461006c57806358eb2df5146100a8578063986f8ba4146100c4575b5f5ffd5b34801561004d575f5ffd5b506100566100e0565b60405161006391906109a9565b60405180910390f35b348015610077575f5ffd5b50610092600480360381019061008d9190610b6a565b610316565b60405161009f9190610c24565b60405180910390f35b6100c260048036038101906100bd9190610c3d565b610329565b005b6100de60048036038101906100d99190610c8d565b610592565b005b60605f60015490505f5f90505f5f90505f600190505b8381116101445760025f8281526020019081526020015f206005015f9054906101000a900460ff1661013157828061012d90610cf8565b9350505b808061013c90610cf8565b9150506100f6565b505f8267ffffffffffffffff8111156101605761015f610a46565b5b60405190808252806020026020018201604052801561019957816020015b610186610799565b81526020019060019003908161017e5790505b5090505f600190505b84811161030b5760025f8281526020019081526020015f206005015f9054906101000a900460ff166102f85760025f8281526020019081526020015f206040518060c00160405290815f8201548152602001600182015f9054906101000a900473ffffffffffffffffffffffffffffffffffffffff1673ffffffffffffffffffffffffffffffffffffffff1673ffffffffffffffffffffffffffffffffffffffff16815260200160028201548152602001600382015f9054906101000a900473ffffffffffffffffffffffffffffffffffffffff1673ffffffffffffffffffffffffffffffffffffffff1673ffffffffffffffffffffffffffffffffffffffff16815260200160048201548152602001600582015f9054906101000a900460ff1615151515815250508284815181106102de576102dd610d3f565b5b602002602001018190525082806102f490610cf8565b9350505b808061030390610cf8565b9150506101a2565b508094505050505090565b5f63150b7a0260e01b9050949350505050565b610331610743565b5f8111610373576040517f08c379a000000000000000000000000000000000000000000000000000000000815260040161036a90610dc6565b60405180910390fd5b60015f81548092919061038590610cf8565b91905055505f60015490506040518060c001604052808281526020018573ffffffffffffffffffffffffffffffffffffffff1681526020018481526020013373ffffffffffffffffffffffffffffffffffffffff1681526020018381526020015f151581525060025f8381526020019081526020015f205f820151815f01556020820151816001015f6101000a81548173ffffffffffffffffffffffffffffffffffffffff021916908373ffffffffffffffffffffffffffffffffffffffff160217905550604082015181600201556060820151816003015f6101000a81548173ffffffffffffffffffffffffffffffffffffffff021916908373ffffffffffffffffffffffffffffffffffffffff1602179055506080820151816004015560a0820151816005015f6101000a81548160ff0219169083151502179055509050508373ffffffffffffffffffffffffffffffffffffffff166323b872dd3330866040518463ffffffff1660e01b815260040161050393929190610e02565b5f604051808303815f87803b15801561051a575f5ffd5b505af115801561052c573d5f5f3e3d5ffd5b50505050828473ffffffffffffffffffffffffffffffffffffffff16827f3a703684ac0e06cbc245a465cb3c43faf40a53aff175518595f6aac9d61afe6333865f60405161057c93929190610e46565b60405180910390a45061058d610790565b505050565b61059a610743565b5f60025f8381526020019081526020015f209050806004015434146105f4576040517f08c379a00000000000000000000000000000000000000000000000000000000081526004016105eb90610eeb565b60405180910390fd5b806005015f9054906101000a900460ff1615610645576040517f08c379a000000000000000000000000000000000000000000000000000000000815260040161063c90610f53565b60405180910390fd5b8273ffffffffffffffffffffffffffffffffffffffff166323b872dd303384600201546040518463ffffffff1660e01b815260040161068693929190610e02565b5f604051808303815f87803b15801561069d575f5ffd5b505af11580156106af573d5f5f3e3d5ffd5b50505050806003015f9054906101000a900473ffffffffffffffffffffffffffffffffffffffff1673ffffffffffffffffffffffffffffffffffffffff166108fc3490811502906040515f60405180830381858888f19350505050158015610719573d5f5f3e3d5ffd5b506001816005015f6101000a81548160ff0219169083151502179055505061073f610790565b5050565b60025f5403610787576040517f08c379a000000000000000000000000000000000000000000000000000000000815260040161077e90610fbb565b60405180910390fd5b60025f81905550565b60015f81905550565b6040518060c001604052805f81526020015f73ffffffffffffffffffffffffffffffffffffffff1681526020015f81526020015f73ffffffffffffffffffffffffffffffffffffffff1681526020015f81526020015f151581525090565b5f81519050919050565b5f82825260208201905092915050565b5f819050602082019050919050565b5f819050919050565b61083281610820565b82525050565b5f73ffffffffffffffffffffffffffffffffffffffff82169050919050565b5f61086182610838565b9050919050565b61087181610857565b82525050565b5f61088182610838565b9050919050565b61089181610877565b82525050565b5f8115159050919050565b6108ab81610897565b82525050565b60c082015f8201516108c55f850182610829565b5060208201516108d86020850182610868565b5060408201516108eb6040850182610829565b5060608201516108fe6060850182610888565b5060808201516109116080850182610829565b5060a082015161092460a08501826108a2565b50505050565b5f61093583836108b1565b60c08301905092915050565b5f602082019050919050565b5f610957826107f7565b6109618185610801565b935061096c83610811565b805f5b8381101561099c578151610983888261092a565b975061098e83610941565b92505060018101905061096f565b5085935050505092915050565b5f6020820190508181035f8301526109c1818461094d565b905092915050565b5f604051905090565b5f5ffd5b5f5ffd5b6109e381610857565b81146109ed575f5ffd5b50565b5f813590506109fe816109da565b92915050565b610a0d81610820565b8114610a17575f5ffd5b50565b5f81359050610a2881610a04565b92915050565b5f5ffd5b5f5ffd5b5f601f19601f8301169050919050565b7f4e487b71000000000000000000000000000000000000000000000000000000005f52604160045260245ffd5b610a7c82610a36565b810181811067ffffffffffffffff82111715610a9b57610a9a610a46565b5b80604052505050565b5f610aad6109c9565b9050610ab98282610a73565b919050565b5f67ffffffffffffffff821115610ad857610ad7610a46565b5b610ae182610a36565b9050602081019050919050565b828183375f83830152505050565b5f610b0e610b0984610abe565b610aa4565b905082815260208101848484011115610b2a57610b29610a32565b5b610b35848285610aee565b509392505050565b5f82601f830112610b5157610b50610a2e565b5b8135610b61848260208601610afc565b91505092915050565b5f5f5f5f60808587031215610b8257610b816109d2565b5b5f610b8f878288016109f0565b9450506020610ba0878288016109f0565b9350506040610bb187828801610a1a565b925050606085013567ffffffffffffffff811115610bd257610bd16109d6565b5b610bde87828801610b3d565b91505092959194509250565b5f7fffffffff0000000000000000000000000000000000000000000000000000000082169050919050565b610c1e81610bea565b82525050565b5f602082019050610c375f830184610c15565b92915050565b5f5f5f60608486031215610c5457610c536109d2565b5b5f610c61868287016109f0565b9350506020610c7286828701610a1a565b9250506040610c8386828701610a1a565b9150509250925092565b5f5f60408385031215610ca357610ca26109d2565b5b5f610cb0858286016109f0565b9250506020610cc185828601610a1a565b9150509250929050565b7f4e487b71000000000000000000000000000000000000000000000000000000005f52601160045260245ffd5b5f610d0282610820565b91507fffffffffffffffffffffffffffffffffffffffffffffffffffffffffffffffff8203610d3457610d33610ccb565b5b600182019050919050565b7f4e487b71000000000000000000000000000000000000000000000000000000005f52603260045260245ffd5b5f82825260208201905092915050565b7f5072696365206d7573742062652067726561746572207468616e2030000000005f82015250565b5f610db0601c83610d6c565b9150610dbb82610d7c565b602082019050919050565b5f6020820190508181035f830152610ddd81610da4565b9050919050565b610ded81610857565b82525050565b610dfc81610820565b82525050565b5f606082019050610e155f830186610de4565b610e226020830185610de4565b610e2f6040830184610df3565b949350505050565b610e4081610897565b82525050565b5f606082019050610e595f830186610de4565b610e666020830185610df3565b610e736040830184610e37565b949350505050565b7f506c65617365207375626d6974207468652065786163742061736b696e6720705f8201527f7269636500000000000000000000000000000000000000000000000000000000602082015250565b5f610ed5602483610d6c565b9150610ee082610e7b565b604082019050919050565b5f6020820190508181035f830152610f0281610ec9565b9050919050565b7f4974656d20697320616c726561647920736f6c640000000000000000000000005f82015250565b5f610f3d601483610d6c565b9150610f4882610f09565b602082019050919050565b5f6020820190508181035f830152610f6a81610f31565b9050919050565b7f5265656e7472616e637947756172643a207265656e7472616e742063616c6c005f82015250565b5f610fa5601f83610d6c565b9150610fb082610f71565b602082019050919050565b5f6020820190508181035f830152610fd281610f99565b905091905056fea2646970667358221220a35da62380f4af4617bfc3fde7f975b82a1bcb97a3289be155ea403cbd7495f164736f6c634300081e0033",
  "immutableReferences": {},
  "source": "// SPDX-License-Identifier: MIT\r\npragma solidity ^0.8.0;\r\n\r\nimport \"@openzeppelin/contracts/token/ERC721/IERC721.sol\";\r\nimport \"@openzeppelin/contracts/token/ERC721/utils/ERC721Holder.sol\";\r\nimport \"../node_modules/@openzeppelin/contracts/security/ReentrancyGuard.sol\";\r\n\r\ncontract Marketplace is ReentrancyGuard, ERC721Holder {\r\n    struct MarketItem {\r\n        uint256 itemId;\r\n        address nftContract;\r\n        uint256 tokenId;\r\n        address payable seller;\r\n        uint256 price;\r\n        bool sold;\r\n    }\r\n\r\n    uint256 private _itemIds;\r\n    mapping(uint256 => MarketItem) private idToMarketItem;\r\n\r\n    event MarketItemCreated(\r\n        uint256 indexed itemId,\r\n        address indexed nftContract,\r\n        uint256 indexed tokenId,\r\n        address seller,\r\n        uint256 price,\r\n        bool sold\r\n    );\r\n\r\n    function createMarketItem(address nftContract, uint256 tokenId, uint256 price)\r\n        public\r\n        payable\r\n        nonReentrant\r\n    {\r\n        require(price > 0, \"Price must be greater than 0\");\r\n        \r\n        _itemIds++;\r\n        uint256 itemId = _itemIds;\r\n\r\n        idToMarketItem[itemId] = MarketItem(\r\n            itemId,\r\n            nftContract,\r\n            tokenId,\r\n            payable(msg.sender),\r\n            price,\r\n            false\r\n        );\r\n\r\n        IERC721(nftContract).transferFrom(msg.sender, address(this), tokenId);\r\n\r\n        emit MarketItemCreated(\r\n            itemId,\r\n            nftContract,\r\n            tokenId,\r\n            msg.sender,\r\n            price,\r\n            false\r\n        );\r\n    }\r\n\r\n    function buyMarketItem(address nftContract, uint256 itemId)\r\n        public\r\n        payable\r\n        nonReentrant\r\n    {\r\n        MarketItem storage item = idToMarketItem[itemId];\r\n        require(msg.value == item.price, \"Please submit the exact asking price\");\r\n        require(!item.sold, \"Item is already sold\");\r\n\r\n        // Transfer the NFT to the buyer\r\n        IERC721(nftContract).transferFrom(address(this), msg.sender, item.tokenId);\r\n\r\n        // Transfer the payment to the seller\r\n        item.seller.transfer(msg.value);\r\n\r\n        item.sold = true;\r\n    }\r\n    \r\n    // Function to fetch all unsold market items\r\n    function fetchMarketItems() public view returns (MarketItem[] memory) {\r\n        uint256 itemCount = _itemIds;\r\n        uint256 unsoldItemCount = 0;\r\n        uint256 currentIndex = 0;\r\n\r\n        for (uint256 i = 1; i <= itemCount; i++) {\r\n            if (!idToMarketItem[i].sold) {\r\n                unsoldItemCount++;\r\n            }\r\n        }\r\n\r\n        MarketItem[] memory items = new MarketItem[](unsoldItemCount);\r\n        for (uint256 i = 1; i <= itemCount; i++) {\r\n            if (!idToMarketItem[i].sold) {\r\n                items[currentIndex] = idToMarketItem[i];\r\n                currentIndex++;\r\n            }\r\n        }\r\n        return items;\r\n    }\r\n}\r\n",
  "sourcePath": "C:\\Users\\piyus\\OneDrive\\Desktop\\NFT Marketplace\\contracts\\Marketplace.sol",
  "compiler": {
    "name": "solc",
    "version": "0.8.30+commit.73712a01.Emscripten.clang"
  },
  "schemaVersion": "3.4.16",
  "updatedAt": "2025-08-02T15:23:55.298Z",
  "devdoc": {
    "kind": "dev",
    "methods": {
      "onERC721Received(address,address,uint256,bytes)": {
        "details": "See {IERC721Receiver-onERC721Received}. Always returns `IERC721Receiver.onERC721Received.selector`."
      }
    },
    "version": 1
  },
  "userdoc": {
    "kind": "user",
    "methods": {},
    "version": 1
  }
}