{
  "contractName": "MyNFT",
  "abi": [
    {
      "inputs": [],
      "stateMutability": "nonpayable",
      "type": "constructor"
    },
    {
      "anonymous": false,
      "inputs": [
        {
          "indexed": true,
          "internalType": "address",
          "name": "owner",
          "type": "address"
        },
        {
          "indexed": true,
          "internalType": "address",
          "name": "approved",
          "type": "address"
        },
        {
          "indexed": true,
          "internalType": "uint256",
          "name": "tokenId",
          "type": "uint256"
        }
      ],
      "name": "Approval",
      "type": "event"
    },
    {
      "anonymous": false,
      "inputs": [
        {
          "indexed": true,
          "internalType": "address",
          "name": "owner",
          "type": "address"
        },
        {
          "indexed": true,
          "internalType": "address",
          "name": "operator",
          "type": "address"
        },
        {
          "indexed": false,
          "internalType": "bool",
          "name": "approved",
          "type": "bool"
        }
      ],
      "name": "ApprovalForAll",
      "type": "event"
    },
    {
      "anonymous": false,
      "inputs": [
        {
          "indexed": false,
          "internalType": "uint256",
          "name": "_fromTokenId",
          "type": "uint256"
        },
        {
          "indexed": false,
          "internalType": "uint256",
          "name": "_toTokenId",
          "type": "uint256"
        }
      ],
      "name": "BatchMetadataUpdate",
      "type": "event"
    },
    {
      "anonymous": false,
      "inputs": [
        {
          "indexed": false,
          "internalType": "uint256",
          "name": "_tokenId",
          "type": "uint256"
        }
      ],
      "name": "MetadataUpdate",
      "type": "event"
    },
    {
      "anonymous": false,
      "inputs": [
        {
          "indexed": true,
          "internalType": "address",
          "name": "from",
          "type": "address"
        },
        {
          "indexed": true,
          "internalType": "address",
          "name": "to",
          "type": "address"
        },
        {
          "indexed": true,
          "internalType": "uint256",
          "name": "tokenId",
          "type": "uint256"
        }
      ],
      "name": "Transfer",
      "type": "event"
    },
    {
      "inputs": [
        {
          "internalType": "address",
          "name": "to",
          "type": "address"
        },
        {
          "internalType": "uint256",
          "name": "tokenId",
          "type": "uint256"
        }
      ],
      "name": "approve",
      "outputs": [],
      "stateMutability": "nonpayable",
      "type": "function"
    },
    {
      "inputs": [
        {
          "internalType": "address",
          "name": "owner",
          "type": "address"
        }
      ],
      "name": "balanceOf",
      "outputs": [
        {
          "internalType": "uint256",
          "name": "",
          "type": "uint256"
        }
      ],
      "stateMutability": "view",
      "type": "function"
    },
    {
      "inputs": [
        {
          "internalType": "uint256",
          "name": "tokenId",
          "type": "uint256"
        }
      ],
      "name": "getApproved",
      "outputs": [
        {
          "internalType": "address",
          "name": "",
          "type": "address"
        }
      ],
      "stateMutability": "view",
      "type": "function"
    },
    {
      "inputs": [
        {
          "internalType": "address",
          "name": "owner",
          "type": "address"
        },
        {
          "internalType": "address",
          "name": "operator",
          "type": "address"
        }
      ],
      "name": "isApprovedForAll",
      "outputs": [
        {
          "internalType": "bool",
          "name": "",
          "type": "bool"
        }
      ],
      "stateMutability": "view",
      "type": "function"
    },
    {
      "inputs": [],
      "name": "name",
      "outputs": [
        {
          "internalType": "string",
          "name": "",
          "type": "string"
        }
      ],
      "stateMutability": "view",
      "type": "function"
    },
    {
      "inputs": [
        {
          "internalType": "uint256",
          "name": "tokenId",
          "type": "uint256"
        }
      ],
      "name": "ownerOf",
      "outputs": [
        {
          "internalType": "address",
          "name": "",
          "type": "address"
        }
      ],
      "stateMutability": "view",
      "type": "function"
    },
    {
      "inputs": [
        {
          "internalType": "address",
          "name": "from",
          "type": "address"
        },
        {
          "internalType": "address",
          "name": "to",
          "type": "address"
        },
        {
          "internalType": "uint256",
          "name": "tokenId",
          "type": "uint256"
        }
      ],
      "name": "safeTransferFrom",
      "outputs": [],
      "stateMutability": "nonpayable",
      "type": "function"
    },
    {
      "inputs": [
        {
          "internalType": "address",
          "name": "from",
          "type": "address"
        },
        {
          "internalType": "address",
          "name": "to",
          "type": "address"
        },
        {
          "internalType": "uint256",
          "name": "tokenId",
          "type": "uint256"
        },
        {
          "internalType": "bytes",
          "name": "data",
          "type": "bytes"
        }
      ],
      "name": "safeTransferFrom",
      "outputs": [],
      "stateMutability": "nonpayable",
      "type": "function"
    },
    {
      "inputs": [
        {
          "internalType": "address",
          "name": "operator",
          "type": "address"
        },
        {
          "internalType": "bool",
          "name": "approved",
          "type": "bool"
        }
      ],
      "name": "setApprovalForAll",
      "outputs": [],
      "stateMutability": "nonpayable",
      "type": "function"
    },
    {
      "inputs": [
        {
          "internalType": "bytes4",
          "name": "interfaceId",
          "type": "bytes4"
        }
      ],
      "name": "supportsInterface",
      "outputs": [
        {
          "internalType": "bool",
          "name": "",
          "type": "bool"
        }
      ],
      "stateMutability": "view",
      "type": "function"
    },
    {
      "inputs": [],
      "name": "symbol",
      "outputs": [
        {
          "internalType": "string",
          "name": "",
          "type": "string"
        }
      ],
      "stateMutability": "view",
      "type": "function"
    },
    {
      "inputs": [
        {
          "internalType": "uint256",
          "name": "tokenId",
          "type": "uint256"
        }
      ],
      "name": "tokenURI",
      "outputs": [
        {
          "internalType": "string",
          "name": "",
          "type": "string"
        }
      ],
      "stateMutability": "view",
      "type": "function"
    },
    {
      "inputs": [
        {
          "internalType": "address",
          "name": "from",
          "type": "address"
        },
        {
          "internalType": "address",
          "name": "to",
          "type": "address"
        },
        {
          "internalType": "uint256",
          "name": "tokenId",
          "type": "uint256"
        }
      ],
      "name": "transferFrom",
      "outputs": [],
      "stateMutability": "nonpayable",
      "type": "function"
    },
    {
      "inputs": [
        {
          "internalType": "address",
          "name": "recipient",
          "type": "address"
        },
        {
          "internalType": "string",
          "name": "tokenURI",
          "type": "string"
        }
      ],
      "name": "mint",
      "outputs": [
        {
          "internalType": "uint256",
          "name": "",
          "type": "uint256"
        }
      ],
      "stateMutability": "nonpayable",
      "type": "function"
    }
  ],
  "bytecode": "0x608060405234801561000f575f5ffd5b506040518060400160405280600581526020017f4d794e46540000000000000000000000000000000000000000000000000000008152506040518060400160405280600481526020017f4d4e465400000000000000000000000000000000000000000000000000000000815250815f908161008a91906102df565b50806001908161009a91906102df565b5050506103ae565b5f81519050919050565b7f4e487b71000000000000000000000000000000000000000000000000000000005f52604160045260245ffd5b7f4e487b71000000000000000000000000000000000000000000000000000000005f52602260045260245ffd5b5f600282049050600182168061011d57607f821691505b6020821081036101305761012f6100d9565b5b50919050565b5f819050815f5260205f209050919050565b5f6020601f8301049050919050565b5f82821b905092915050565b5f600883026101927fffffffffffffffffffffffffffffffffffffffffffffffffffffffffffffffff82610157565b61019c8683610157565b95508019841693508086168417925050509392505050565b5f819050919050565b5f819050919050565b5f6101e06101db6101d6846101b4565b6101bd565b6101b4565b9050919050565b5f819050919050565b6101f9836101c6565b61020d610205826101e7565b848454610163565b825550505050565b5f5f905090565b610224610215565b61022f8184846101f0565b505050565b5b81811015610252576102475f8261021c565b600181019050610235565b5050565b601f8211156102975761026881610136565b61027184610148565b81016020851015610280578190505b61029461028c85610148565b830182610234565b50505b505050565b5f82821c905092915050565b5f6102b75f198460080261029c565b1980831691505092915050565b5f6102cf83836102a8565b9150826002028217905092915050565b6102e8826100a2565b67ffffffffffffffff811115610301576103006100ac565b5b61030b8254610106565b610316828285610256565b5f60209050601f831160018114610347575f8415610335578287015190505b61033f85826102c4565b8655506103a6565b601f19841661035586610136565b5f5b8281101561037c57848901518255600182019150602085019450602081019050610357565b868310156103995784890151610395601f8916826102a8565b8355505b6001600288020188555050505b505050505050565b6129d7806103bb5f395ff3fe608060405234801561000f575f5ffd5b50600436106100e8575f3560e01c806370a082311161008a578063b88d4fde11610064578063b88d4fde14610258578063c87b56dd14610274578063d0def521146102a4578063e985e9c5146102d4576100e8565b806370a08231146101ee57806395d89b411461021e578063a22cb4651461023c576100e8565b8063095ea7b3116100c6578063095ea7b31461016a57806323b872dd1461018657806342842e0e146101a25780636352211e146101be576100e8565b806301ffc9a7146100ec57806306fdde031461011c578063081812fc1461013a575b5f5ffd5b61010660048036038101906101019190611967565b610304565b60405161011391906119ac565b60405180910390f35b610124610364565b6040516101319190611a35565b60405180910390f35b610154600480360381019061014f9190611a88565b6103f3565b6040516101619190611af2565b60405180910390f35b610184600480360381019061017f9190611b35565b610435565b005b6101a0600480360381019061019b9190611b73565b61054b565b005b6101bc60048036038101906101b79190611b73565b6105ab565b005b6101d860048036038101906101d39190611a88565b6105ca565b6040516101e59190611af2565b60405180910390f35b61020860048036038101906102039190611bc3565b61064e565b6040516102159190611bfd565b60405180910390f35b610226610702565b6040516102339190611a35565b60405180910390f35b61025660048036038101906102519190611c40565b610792565b005b610272600480360381019061026d9190611daa565b6107a8565b005b61028e60048036038101906102899190611a88565b61080a565b60405161029b9190611a35565b60405180910390f35b6102be60048036038101906102b99190611ec8565b610914565b6040516102cb9190611bfd565b60405180910390f35b6102ee60048036038101906102e99190611f22565b61094a565b6040516102fb91906119ac565b60405180910390f35b5f634906490660e01b7bffffffffffffffffffffffffffffffffffffffffffffffffffffffff1916827bffffffffffffffffffffffffffffffffffffffffffffffffffffffff1916148061035d575061035c826109d8565b5b9050919050565b60605f805461037290611f8d565b80601f016020809104026020016040519081016040528092919081815260200182805461039e90611f8d565b80156103e95780601f106103c0576101008083540402835291602001916103e9565b820191905f5260205f20905b8154815290600101906020018083116103cc57829003601f168201915b5050505050905090565b5f6103fd82610ab9565b60045f8381526020019081526020015f205f9054906101000a900473ffffffffffffffffffffffffffffffffffffffff169050919050565b5f61043f826105ca565b90508073ffffffffffffffffffffffffffffffffffffffff168373ffffffffffffffffffffffffffffffffffffffff16036104af576040517f08c379a00000000000000000000000000000000000000000000000000000000081526004016104a69061202d565b60405180910390fd5b8073ffffffffffffffffffffffffffffffffffffffff166104ce610b04565b73ffffffffffffffffffffffffffffffffffffffff1614806104fd57506104fc816104f7610b04565b61094a565b5b61053c576040517f08c379a0000000000000000000000000000000000000000000000000000000008152600401610533906120bb565b60405180910390fd5b6105468383610b0b565b505050565b61055c610556610b04565b82610bc1565b61059b576040517f08c379a000000000000000000000000000000000000000000000000000000000815260040161059290612149565b60405180910390fd5b6105a6838383610c55565b505050565b6105c583838360405180602001604052805f8152506107a8565b505050565b5f5f6105d583610f41565b90505f73ffffffffffffffffffffffffffffffffffffffff168173ffffffffffffffffffffffffffffffffffffffff1603610645576040517f08c379a000000000000000000000000000000000000000000000000000000000815260040161063c906121b1565b60405180910390fd5b80915050919050565b5f5f73ffffffffffffffffffffffffffffffffffffffff168273ffffffffffffffffffffffffffffffffffffffff16036106bd576040517f08c379a00000000000000000000000000000000000000000000000000000000081526004016106b49061223f565b60405180910390fd5b60035f8373ffffffffffffffffffffffffffffffffffffffff1673ffffffffffffffffffffffffffffffffffffffff1681526020019081526020015f20549050919050565b60606001805461071190611f8d565b80601f016020809104026020016040519081016040528092919081815260200182805461073d90611f8d565b80156107885780601f1061075f57610100808354040283529160200191610788565b820191905f5260205f20905b81548152906001019060200180831161076b57829003601f168201915b5050505050905090565b6107a461079d610b04565b8383610f7a565b5050565b6107b96107b3610b04565b83610bc1565b6107f8576040517f08c379a00000000000000000000000000000000000000000000000000000000081526004016107ef90612149565b60405180910390fd5b610804848484846110e1565b50505050565b606061081582610ab9565b5f60065f8481526020019081526020015f20805461083290611f8d565b80601f016020809104026020016040519081016040528092919081815260200182805461085e90611f8d565b80156108a95780601f10610880576101008083540402835291602001916108a9565b820191905f5260205f20905b81548152906001019060200180831161088c57829003601f168201915b505050505090505f6108b961113d565b90505f8151036108cd57819250505061090f565b5f825111156109015780826040516020016108e9929190612297565b6040516020818303038152906040529250505061090f565b61090a84611153565b925050505b919050565b5f5f61092060076111b8565b905061092c60076111c4565b61093684826111d8565b61094081846113eb565b8091505092915050565b5f60055f8473ffffffffffffffffffffffffffffffffffffffff1673ffffffffffffffffffffffffffffffffffffffff1681526020019081526020015f205f8373ffffffffffffffffffffffffffffffffffffffff1673ffffffffffffffffffffffffffffffffffffffff1681526020019081526020015f205f9054906101000a900460ff16905092915050565b5f7f80ac58cd000000000000000000000000000000000000000000000000000000007bffffffffffffffffffffffffffffffffffffffffffffffffffffffff1916827bffffffffffffffffffffffffffffffffffffffffffffffffffffffff19161480610aa257507f5b5e139f000000000000000000000000000000000000000000000000000000007bffffffffffffffffffffffffffffffffffffffffffffffffffffffff1916827bffffffffffffffffffffffffffffffffffffffffffffffffffffffff1916145b80610ab25750610ab18261148d565b5b9050919050565b610ac2816114f6565b610b01576040517f08c379a0000000000000000000000000000000000000000000000000000000008152600401610af8906121b1565b60405180910390fd5b50565b5f33905090565b8160045f8381526020019081526020015f205f6101000a81548173ffffffffffffffffffffffffffffffffffffffff021916908373ffffffffffffffffffffffffffffffffffffffff160217905550808273ffffffffffffffffffffffffffffffffffffffff16610b7b836105ca565b73ffffffffffffffffffffffffffffffffffffffff167f8c5be1e5ebec7d5bd14f71427d1e84f3dd0314c0f7b2291e5b200ac8c7c3b92560405160405180910390a45050565b5f5f610bcc836105ca565b90508073ffffffffffffffffffffffffffffffffffffffff168473ffffffffffffffffffffffffffffffffffffffff161480610c0e5750610c0d818561094a565b5b80610c4c57508373ffffffffffffffffffffffffffffffffffffffff16610c34846103f3565b73ffffffffffffffffffffffffffffffffffffffff16145b91505092915050565b8273ffffffffffffffffffffffffffffffffffffffff16610c75826105ca565b73ffffffffffffffffffffffffffffffffffffffff1614610ccb576040517f08c379a0000000000000000000000000000000000000000000000000000000008152600401610cc29061232a565b60405180910390fd5b5f73ffffffffffffffffffffffffffffffffffffffff168273ffffffffffffffffffffffffffffffffffffffff1603610d39576040517f08c379a0000000000000000000000000000000000000000000000000000000008152600401610d30906123b8565b60405180910390fd5b610d468383836001611536565b8273ffffffffffffffffffffffffffffffffffffffff16610d66826105ca565b73ffffffffffffffffffffffffffffffffffffffff1614610dbc576040517f08c379a0000000000000000000000000000000000000000000000000000000008152600401610db39061232a565b60405180910390fd5b60045f8281526020019081526020015f205f6101000a81549073ffffffffffffffffffffffffffffffffffffffff0219169055600160035f8573ffffffffffffffffffffffffffffffffffffffff1673ffffffffffffffffffffffffffffffffffffffff1681526020019081526020015f205f8282540392505081905550600160035f8473ffffffffffffffffffffffffffffffffffffffff1673ffffffffffffffffffffffffffffffffffffffff1681526020019081526020015f205f82825401925050819055508160025f8381526020019081526020015f205f6101000a81548173ffffffffffffffffffffffffffffffffffffffff021916908373ffffffffffffffffffffffffffffffffffffffff160217905550808273ffffffffffffffffffffffffffffffffffffffff168473ffffffffffffffffffffffffffffffffffffffff167fddf252ad1be2c89b69c2b068fc378daa952ba7f163c4a11628f55a4df523b3ef60405160405180910390a4610f3c838383600161153c565b505050565b5f60025f8381526020019081526020015f205f9054906101000a900473ffffffffffffffffffffffffffffffffffffffff169050919050565b8173ffffffffffffffffffffffffffffffffffffffff168373ffffffffffffffffffffffffffffffffffffffff1603610fe8576040517f08c379a0000000000000000000000000000000000000000000000000000000008152600401610fdf90612420565b60405180910390fd5b8060055f8573ffffffffffffffffffffffffffffffffffffffff1673ffffffffffffffffffffffffffffffffffffffff1681526020019081526020015f205f8473ffffffffffffffffffffffffffffffffffffffff1673ffffffffffffffffffffffffffffffffffffffff1681526020019081526020015f205f6101000a81548160ff0219169083151502179055508173ffffffffffffffffffffffffffffffffffffffff168373ffffffffffffffffffffffffffffffffffffffff167f17307eab39ab6107e8899845ad3d59bd9653f200f220920489ca2b5937696c31836040516110d491906119ac565b60405180910390a3505050565b6110ec848484610c55565b6110f884848484611542565b611137576040517f08c379a000000000000000000000000000000000000000000000000000000000815260040161112e906124ae565b60405180910390fd5b50505050565b606060405180602001604052805f815250905090565b606061115e82610ab9565b5f61116761113d565b90505f8151116111855760405180602001604052805f8152506111b0565b8061118f846116c4565b6040516020016111a0929190612297565b6040516020818303038152906040525b915050919050565b5f815f01549050919050565b6001815f015f828254019250508190555050565b5f73ffffffffffffffffffffffffffffffffffffffff168273ffffffffffffffffffffffffffffffffffffffff1603611246576040517f08c379a000000000000000000000000000000000000000000000000000000000815260040161123d90612516565b60405180910390fd5b61124f816114f6565b1561128f576040517f08c379a00000000000000000000000000000000000000000000000000000000081526004016112869061257e565b60405180910390fd5b61129c5f83836001611536565b6112a5816114f6565b156112e5576040517f08c379a00000000000000000000000000000000000000000000000000000000081526004016112dc9061257e565b60405180910390fd5b600160035f8473ffffffffffffffffffffffffffffffffffffffff1673ffffffffffffffffffffffffffffffffffffffff1681526020019081526020015f205f82825401925050819055508160025f8381526020019081526020015f205f6101000a81548173ffffffffffffffffffffffffffffffffffffffff021916908373ffffffffffffffffffffffffffffffffffffffff160217905550808273ffffffffffffffffffffffffffffffffffffffff165f73ffffffffffffffffffffffffffffffffffffffff167fddf252ad1be2c89b69c2b068fc378daa952ba7f163c4a11628f55a4df523b3ef60405160405180910390a46113e75f8383600161153c565b5050565b6113f4826114f6565b611433576040517f08c379a000000000000000000000000000000000000000000000000000000000815260040161142a9061260c565b60405180910390fd5b8060065f8481526020019081526020015f20908161145191906127ca565b507ff8e1a15aba9398e019f0b49df1a4fde98ee17ae345cb5f6b5e2c27f5033e8ce7826040516114819190611bfd565b60405180910390a15050565b5f7f01ffc9a7000000000000000000000000000000000000000000000000000000007bffffffffffffffffffffffffffffffffffffffffffffffffffffffff1916827bffffffffffffffffffffffffffffffffffffffffffffffffffffffff1916149050919050565b5f5f73ffffffffffffffffffffffffffffffffffffffff1661151783610f41565b73ffffffffffffffffffffffffffffffffffffffff1614159050919050565b50505050565b50505050565b5f6115628473ffffffffffffffffffffffffffffffffffffffff1661178e565b156116b7578373ffffffffffffffffffffffffffffffffffffffff1663150b7a0261158b610b04565b8786866040518563ffffffff1660e01b81526004016115ad94939291906128eb565b6020604051808303815f875af19250505080156115e857506040513d601f19601f820116820180604052508101906115e59190612949565b60015b611667573d805f8114611616576040519150601f19603f3d011682016040523d82523d5f602084013e61161b565b606091505b505f81510361165f576040517f08c379a0000000000000000000000000000000000000000000000000000000008152600401611656906124ae565b60405180910390fd5b805181602001fd5b63150b7a0260e01b7bffffffffffffffffffffffffffffffffffffffffffffffffffffffff1916817bffffffffffffffffffffffffffffffffffffffffffffffffffffffff1916149150506116bc565b600190505b949350505050565b60605f60016116d2846117b0565b0190505f8167ffffffffffffffff8111156116f0576116ef611c86565b5b6040519080825280601f01601f1916602001820160405280156117225781602001600182028036833780820191505090505b5090505f82602001820190505b600115611783578080600190039150507f3031323334353637383961626364656600000000000000000000000000000000600a86061a8153600a858161177857611777612974565b5b0494505f850361172f575b819350505050919050565b5f5f8273ffffffffffffffffffffffffffffffffffffffff163b119050919050565b5f5f5f90507a184f03e93ff9f4daa797ed6e38ed64bf6a1f010000000000000000831061180c577a184f03e93ff9f4daa797ed6e38ed64bf6a1f010000000000000000838161180257611801612974565b5b0492506040810190505b6d04ee2d6d415b85acef81000000008310611849576d04ee2d6d415b85acef8100000000838161183f5761183e612974565b5b0492506020810190505b662386f26fc10000831061187857662386f26fc10000838161186e5761186d612974565b5b0492506010810190505b6305f5e10083106118a1576305f5e100838161189757611896612974565b5b0492506008810190505b61271083106118c65761271083816118bc576118bb612974565b5b0492506004810190505b606483106118e957606483816118df576118de612974565b5b0492506002810190505b600a83106118f8576001810190505b80915050919050565b5f604051905090565b5f5ffd5b5f5ffd5b5f7fffffffff0000000000000000000000000000000000000000000000000000000082169050919050565b61194681611912565b8114611950575f5ffd5b50565b5f813590506119618161193d565b92915050565b5f6020828403121561197c5761197b61190a565b5b5f61198984828501611953565b91505092915050565b5f8115159050919050565b6119a681611992565b82525050565b5f6020820190506119bf5f83018461199d565b92915050565b5f81519050919050565b5f82825260208201905092915050565b8281835e5f83830152505050565b5f601f19601f8301169050919050565b5f611a07826119c5565b611a1181856119cf565b9350611a218185602086016119df565b611a2a816119ed565b840191505092915050565b5f6020820190508181035f830152611a4d81846119fd565b905092915050565b5f819050919050565b611a6781611a55565b8114611a71575f5ffd5b50565b5f81359050611a8281611a5e565b92915050565b5f60208284031215611a9d57611a9c61190a565b5b5f611aaa84828501611a74565b91505092915050565b5f73ffffffffffffffffffffffffffffffffffffffff82169050919050565b5f611adc82611ab3565b9050919050565b611aec81611ad2565b82525050565b5f602082019050611b055f830184611ae3565b92915050565b611b1481611ad2565b8114611b1e575f5ffd5b50565b5f81359050611b2f81611b0b565b92915050565b5f5f60408385031215611b4b57611b4a61190a565b5b5f611b5885828601611b21565b9250506020611b6985828601611a74565b9150509250929050565b5f5f5f60608486031215611b8a57611b8961190a565b5b5f611b9786828701611b21565b9350506020611ba886828701611b21565b9250506040611bb986828701611a74565b9150509250925092565b5f60208284031215611bd857611bd761190a565b5b5f611be584828501611b21565b91505092915050565b611bf781611a55565b82525050565b5f602082019050611c105f830184611bee565b92915050565b611c1f81611992565b8114611c29575f5ffd5b50565b5f81359050611c3a81611c16565b92915050565b5f5f60408385031215611c5657611c5561190a565b5b5f611c6385828601611b21565b9250506020611c7485828601611c2c565b9150509250929050565b5f5ffd5b5f5ffd5b7f4e487b71000000000000000000000000000000000000000000000000000000005f52604160045260245ffd5b611cbc826119ed565b810181811067ffffffffffffffff82111715611cdb57611cda611c86565b5b80604052505050565b5f611ced611901565b9050611cf98282611cb3565b919050565b5f67ffffffffffffffff821115611d1857611d17611c86565b5b611d21826119ed565b9050602081019050919050565b828183375f83830152505050565b5f611d4e611d4984611cfe565b611ce4565b905082815260208101848484011115611d6a57611d69611c82565b5b611d75848285611d2e565b509392505050565b5f82601f830112611d9157611d90611c7e565b5b8135611da1848260208601611d3c565b91505092915050565b5f5f5f5f60808587031215611dc257611dc161190a565b5b5f611dcf87828801611b21565b9450506020611de087828801611b21565b9350506040611df187828801611a74565b925050606085013567ffffffffffffffff811115611e1257611e1161190e565b5b611e1e87828801611d7d565b91505092959194509250565b5f67ffffffffffffffff821115611e4457611e43611c86565b5b611e4d826119ed565b9050602081019050919050565b5f611e6c611e6784611e2a565b611ce4565b905082815260208101848484011115611e8857611e87611c82565b5b611e93848285611d2e565b509392505050565b5f82601f830112611eaf57611eae611c7e565b5b8135611ebf848260208601611e5a565b91505092915050565b5f5f60408385031215611ede57611edd61190a565b5b5f611eeb85828601611b21565b925050602083013567ffffffffffffffff811115611f0c57611f0b61190e565b5b611f1885828601611e9b565b9150509250929050565b5f5f60408385031215611f3857611f3761190a565b5b5f611f4585828601611b21565b9250506020611f5685828601611b21565b9150509250929050565b7f4e487b71000000000000000000000000000000000000000000000000000000005f52602260045260245ffd5b5f6002820490506001821680611fa457607f821691505b602082108103611fb757611fb6611f60565b5b50919050565b7f4552433732313a20617070726f76616c20746f2063757272656e74206f776e655f8201527f7200000000000000000000000000000000000000000000000000000000000000602082015250565b5f6120176021836119cf565b915061202282611fbd565b604082019050919050565b5f6020820190508181035f8301526120448161200b565b9050919050565b7f4552433732313a20617070726f76652063616c6c6572206973206e6f7420746f5f8201527f6b656e206f776e6572206f7220617070726f76656420666f7220616c6c000000602082015250565b5f6120a5603d836119cf565b91506120b08261204b565b604082019050919050565b5f6020820190508181035f8301526120d281612099565b9050919050565b7f4552433732313a2063616c6c6572206973206e6f7420746f6b656e206f776e655f8201527f72206f7220617070726f76656400000000000000000000000000000000000000602082015250565b5f612133602d836119cf565b915061213e826120d9565b604082019050919050565b5f6020820190508181035f83015261216081612127565b9050919050565b7f4552433732313a20696e76616c696420746f6b656e20494400000000000000005f82015250565b5f61219b6018836119cf565b91506121a682612167565b602082019050919050565b5f6020820190508181035f8301526121c88161218f565b9050919050565b7f4552433732313a2061646472657373207a65726f206973206e6f7420612076615f8201527f6c6964206f776e65720000000000000000000000000000000000000000000000602082015250565b5f6122296029836119cf565b9150612234826121cf565b604082019050919050565b5f6020820190508181035f8301526122568161221d565b9050919050565b5f81905092915050565b5f612271826119c5565b61227b818561225d565b935061228b8185602086016119df565b80840191505092915050565b5f6122a28285612267565b91506122ae8284612267565b91508190509392505050565b7f4552433732313a207472616e736665722066726f6d20696e636f7272656374205f8201527f6f776e6572000000000000000000000000000000000000000000000000000000602082015250565b5f6123146025836119cf565b915061231f826122ba565b604082019050919050565b5f6020820190508181035f83015261234181612308565b9050919050565b7f4552433732313a207472616e7366657220746f20746865207a65726f206164645f8201527f7265737300000000000000000000000000000000000000000000000000000000602082015250565b5f6123a26024836119cf565b91506123ad82612348565b604082019050919050565b5f6020820190508181035f8301526123cf81612396565b9050919050565b7f4552433732313a20617070726f766520746f2063616c6c6572000000000000005f82015250565b5f61240a6019836119cf565b9150612415826123d6565b602082019050919050565b5f6020820190508181035f830152612437816123fe565b9050919050565b7f4552433732313a207472616e7366657220746f206e6f6e2045524337323152655f8201527f63656976657220696d706c656d656e7465720000000000000000000000000000602082015250565b5f6124986032836119cf565b91506124a38261243e565b604082019050919050565b5f6020820190508181035f8301526124c58161248c565b9050919050565b7f4552433732313a206d696e7420746f20746865207a65726f20616464726573735f82015250565b5f6125006020836119cf565b915061250b826124cc565b602082019050919050565b5f6020820190508181035f83015261252d816124f4565b9050919050565b7f4552433732313a20746f6b656e20616c7265616479206d696e746564000000005f82015250565b5f612568601c836119cf565b915061257382612534565b602082019050919050565b5f6020820190508181035f8301526125958161255c565b9050919050565b7f45524337323155524953746f726167653a2055524920736574206f66206e6f6e5f8201527f6578697374656e7420746f6b656e000000000000000000000000000000000000602082015250565b5f6125f6602e836119cf565b91506126018261259c565b604082019050919050565b5f6020820190508181035f830152612623816125ea565b9050919050565b5f819050815f5260205f209050919050565b5f6020601f8301049050919050565b5f82821b905092915050565b5f600883026126867fffffffffffffffffffffffffffffffffffffffffffffffffffffffffffffffff8261264b565b612690868361264b565b95508019841693508086168417925050509392505050565b5f819050919050565b5f6126cb6126c66126c184611a55565b6126a8565b611a55565b9050919050565b5f819050919050565b6126e4836126b1565b6126f86126f0826126d2565b848454612657565b825550505050565b5f5f905090565b61270f612700565b61271a8184846126db565b505050565b5b8181101561273d576127325f82612707565b600181019050612720565b5050565b601f821115612782576127538161262a565b61275c8461263c565b8101602085101561276b578190505b61277f6127778561263c565b83018261271f565b50505b505050565b5f82821c905092915050565b5f6127a25f1984600802612787565b1980831691505092915050565b5f6127ba8383612793565b9150826002028217905092915050565b6127d3826119c5565b67ffffffffffffffff8111156127ec576127eb611c86565b5b6127f68254611f8d565b612801828285612741565b5f60209050601f831160018114612832575f8415612820578287015190505b61282a85826127af565b865550612891565b601f1984166128408661262a565b5f5b8281101561286757848901518255600182019150602085019450602081019050612842565b868310156128845784890151612880601f891682612793565b8355505b6001600288020188555050505b505050505050565b5f81519050919050565b5f82825260208201905092915050565b5f6128bd82612899565b6128c781856128a3565b93506128d78185602086016119df565b6128e0816119ed565b840191505092915050565b5f6080820190506128fe5f830187611ae3565b61290b6020830186611ae3565b6129186040830185611bee565b818103606083015261292a81846128b3565b905095945050505050565b5f815190506129438161193d565b92915050565b5f6020828403121561295e5761295d61190a565b5b5f61296b84828501612935565b91505092915050565b7f4e487b71000000000000000000000000000000000000000000000000000000005f52601260045260245ffdfea2646970667358221220e862d2de5a1b66b2798f6e8302be2dcacd57a69a25bf5ffaa3b7873fc9e1916064736f6c634300081e0033",
  "immutableReferences": {},
  "source": "// SPDX-License-Identifier: MIT\r\npragma solidity ^0.8.0;\r\n\r\nimport \"@openzeppelin/contracts/token/ERC721/ERC721.sol\";\r\nimport \"@openzeppelin/contracts/token/ERC721/extensions/ERC721URIStorage.sol\";\r\nimport \"@openzeppelin/contracts/utils/Counters.sol\";\r\n\r\ncontract MyNFT is ERC721URIStorage {\r\n    using Counters for Counters.Counter;\r\n    Counters.Counter private _tokenIdCounter;\r\n\r\n    constructor() ERC721(\"MyNFT\", \"MNFT\") {}\r\n\r\n    function mint(address recipient, string memory tokenURI)\r\n        public\r\n        returns (uint256)\r\n    {\r\n        uint256 newItemId = _tokenIdCounter.current();\r\n        _tokenIdCounter.increment();\r\n        _mint(recipient, newItemId);\r\n        _setTokenURI(newItemId, tokenURI);\r\n        return newItemId;\r\n    }\r\n}",
  "sourcePath": "C:\\Users\\piyus\\OneDrive\\Desktop\\NFT Marketplace\\contracts\\myNFT.sol",
  "compiler": {
    "name": "solc",
    "version": "0.8.30+commit.73712a01.Emscripten.clang"
  },
  "schemaVersion": "3.4.16",
  "updatedAt": "2025-08-02T15:23:55.303Z",
  "devdoc": {
    "events": {
      "Approval(address,address,uint256)": {
        "details": "Emitted when `owner` enables `approved` to manage the `tokenId` token."
      },
      "ApprovalForAll(address,address,bool)": {
        "details": "Emitted when `owner` enables or disables (`approved`) `operator` to manage all of its assets."
      },
      "BatchMetadataUpdate(uint256,uint256)": {
        "details": "This event emits when the metadata of a range of tokens is changed. So that the third-party platforms such as NFT market could timely update the images and related attributes of the NFTs."
      },
      "MetadataUpdate(uint256)": {
        "details": "This event emits when the metadata of a token is changed. So that the third-party platforms such as NFT market could timely update the images and related attributes of the NFT."
      },
      "Transfer(address,address,uint256)": {
        "details": "Emitted when `tokenId` token is transferred from `from` to `to`."
      }
    },
    "kind": "dev",
    "methods": {
      "approve(address,uint256)": {
        "details": "See {IERC721-approve}."
      },
      "balanceOf(address)": {
        "details": "See {IERC721-balanceOf}."
      },
      "getApproved(uint256)": {
        "details": "See {IERC721-getApproved}."
      },
      "isApprovedForAll(address,address)": {
        "details": "See {IERC721-isApprovedForAll}."
      },
      "name()": {
        "details": "See {IERC721Metadata-name}."
      },
      "ownerOf(uint256)": {
        "details": "See {IERC721-ownerOf}."
      },
      "safeTransferFrom(address,address,uint256)": {
        "details": "See {IERC721-safeTransferFrom}."
      },
      "safeTransferFrom(address,address,uint256,bytes)": {
        "details": "See {IERC721-safeTransferFrom}."
      },
      "setApprovalForAll(address,bool)": {
        "details": "See {IERC721-setApprovalForAll}."
      },
      "supportsInterface(bytes4)": {
        "details": "See {IERC165-supportsInterface}"
      },
      "symbol()": {
        "details": "See {IERC721Metadata-symbol}."
      },
      "tokenURI(uint256)": {
        "details": "See {IERC721Metadata-tokenURI}."
      },
      "transferFrom(address,address,uint256)": {
        "details": "See {IERC721-transferFrom}."
      }
    },
    "version": 1
  },
  "userdoc": {
    "kind": "user",
    "methods": {},
    "version": 1
  }
}